{
  "contractName": "LendingContract",
  "abi": [
    {
      "inputs": [
        {
          "internalType": "contract IERC20",
          "name": "_token",
          "type": "address"
        }
      ],
      "stateMutability": "nonpayable",
      "type": "constructor"
    },
    {
      "anonymous": false,
      "inputs": [
        {
          "indexed": true,
          "internalType": "address",
          "name": "user",
          "type": "address"
        },
        {
          "indexed": false,
          "internalType": "uint256",
          "name": "amount",
          "type": "uint256"
        }
      ],
      "name": "Deposit",
      "type": "event"
    },
    {
      "anonymous": false,
      "inputs": [
        {
          "indexed": true,
          "internalType": "address",
          "name": "user",
          "type": "address"
        },
        {
          "indexed": false,
          "internalType": "uint256",
          "name": "amount",
          "type": "uint256"
        }
      ],
      "name": "Repayment",
      "type": "event"
    },
    {
      "anonymous": false,
      "inputs": [
        {
          "indexed": true,
          "internalType": "address",
          "name": "user",
          "type": "address"
        },
        {
          "indexed": false,
          "internalType": "uint256",
          "name": "amount",
          "type": "uint256"
        }
      ],
      "name": "Withdrawal",
      "type": "event"
    },
    {
      "inputs": [
        {
          "internalType": "address",
          "name": "",
          "type": "address"
        }
      ],
      "name": "deposits",
      "outputs": [
        {
          "internalType": "uint256",
          "name": "",
          "type": "uint256"
        }
      ],
      "stateMutability": "view",
      "type": "function",
      "constant": true
    },
    {
      "inputs": [],
      "name": "token",
      "outputs": [
        {
          "internalType": "contract IERC20",
          "name": "",
          "type": "address"
        }
      ],
      "stateMutability": "view",
      "type": "function",
      "constant": true
    },
    {
      "inputs": [],
      "name": "deposit",
      "outputs": [],
      "stateMutability": "payable",
      "type": "function",
      "payable": true
    },
    {
      "inputs": [
        {
          "internalType": "address",
          "name": "spender",
          "type": "address"
        },
        {
          "internalType": "uint256",
          "name": "amount",
          "type": "uint256"
        }
      ],
      "name": "approve",
      "outputs": [],
      "stateMutability": "nonpayable",
      "type": "function"
    },
    {
      "inputs": [
        {
          "internalType": "uint256",
          "name": "amount",
          "type": "uint256"
        }
      ],
      "name": "withdraw",
      "outputs": [],
      "stateMutability": "nonpayable",
      "type": "function"
    },
    {
      "inputs": [
        {
          "internalType": "uint256",
          "name": "amount",
          "type": "uint256"
        }
      ],
      "name": "repayLoan",
      "outputs": [],
      "stateMutability": "nonpayable",
      "type": "function"
    }
  ],
  "bytecode": "0x608060405234801561001057600080fd5b50604051610f48380380610f488339818101604052810190610032919061008d565b806000806101000a81548173ffffffffffffffffffffffffffffffffffffffff021916908373ffffffffffffffffffffffffffffffffffffffff16021790555050610111565b600081519050610087816100fa565b92915050565b60006020828403121561009f57600080fd5b60006100ad84828501610078565b91505092915050565b60006100c1826100da565b9050919050565b60006100d3826100b6565b9050919050565b600073ffffffffffffffffffffffffffffffffffffffff82169050919050565b610103816100c8565b811461010e57600080fd5b50565b610e28806101206000396000f3fe6080604052600436106100555760003560e01c8063095ea7b31461005a5780632e1a7d4d14610083578063ab7b1c89146100ac578063d0e30db0146100d5578063fc0c546a146100df578063fc7e286d1461010a575b600080fd5b34801561006657600080fd5b50610081600480360381019061007c9190610946565b610147565b005b34801561008f57600080fd5b506100aa60048036038101906100a591906109ab565b6102d9565b005b3480156100b857600080fd5b506100d360048036038101906100ce91906109ab565b610537565b005b6100dd610710565b005b3480156100eb57600080fd5b506100f46108a2565b6040516101019190610ba1565b60405180910390f35b34801561011657600080fd5b50610131600480360381019061012c919061091d565b6108c6565b60405161013e9190610c5c565b60405180910390f35b600073ffffffffffffffffffffffffffffffffffffffff163373ffffffffffffffffffffffffffffffffffffffff1614156101b7576040517f08c379a00000000000000000000000000000000000000000000000000000000081526004016101ae90610bfc565b60405180910390fd5b600073ffffffffffffffffffffffffffffffffffffffff168273ffffffffffffffffffffffffffffffffffffffff161415610227576040517f08c379a000000000000000000000000000000000000000000000000000000000815260040161021e90610bdc565b60405180910390fd5b60008054906101000a900473ffffffffffffffffffffffffffffffffffffffff1673ffffffffffffffffffffffffffffffffffffffff1663095ea7b383836040518363ffffffff1660e01b8152600401610282929190610b78565b602060405180830381600087803b15801561029c57600080fd5b505af11580156102b0573d6000803e3d6000fd5b505050506040513d601f19601f820116820180604052508101906102d49190610982565b505050565b80600160003373ffffffffffffffffffffffffffffffffffffffff1673ffffffffffffffffffffffffffffffffffffffff16815260200190815260200160002054101561035b576040517f08c379a000000000000000000000000000000000000000000000000000000000815260040161035290610bbc565b60405180910390fd5b80600160003373ffffffffffffffffffffffffffffffffffffffff1673ffffffffffffffffffffffffffffffffffffffff16815260200190815260200160002060008282546103aa9190610cde565b9250508190555060008054906101000a900473ffffffffffffffffffffffffffffffffffffffff1673ffffffffffffffffffffffffffffffffffffffff166323b872dd3330846040518463ffffffff1660e01b815260040161040e93929190610b41565b602060405180830381600087803b15801561042857600080fd5b505af115801561043c573d6000803e3d6000fd5b505050506040513d601f19601f820116820180604052508101906104609190610982565b61049f576040517f08c379a000000000000000000000000000000000000000000000000000000000815260040161049690610c3c565b60405180910390fd5b3373ffffffffffffffffffffffffffffffffffffffff166108fc829081150290604051600060405180830381858888f193505050501580156104e5573d6000803e3d6000fd5b503373ffffffffffffffffffffffffffffffffffffffff167f7fcf532c15f0a6db0bd6d0e038bea71d30d808c7d98cb3bf7268a95bf5081b658260405161052c9190610c5c565b60405180910390a250565b80600160003373ffffffffffffffffffffffffffffffffffffffff1673ffffffffffffffffffffffffffffffffffffffff1681526020019081526020016000205410156105b9576040517f08c379a00000000000000000000000000000000000000000000000000000000081526004016105b090610c1c565b60405180910390fd5b60008054906101000a900473ffffffffffffffffffffffffffffffffffffffff1673ffffffffffffffffffffffffffffffffffffffff166323b872dd3330846040518463ffffffff1660e01b815260040161061693929190610b41565b602060405180830381600087803b15801561063057600080fd5b505af1158015610644573d6000803e3d6000fd5b505050506040513d601f19601f820116820180604052508101906106689190610982565b5080600160003373ffffffffffffffffffffffffffffffffffffffff1673ffffffffffffffffffffffffffffffffffffffff16815260200190815260200160002060008282546106b89190610cde565b925050819055503373ffffffffffffffffffffffffffffffffffffffff167fbb284f7f8cb8b1b8c98ee9a7d765413efc44bbb17352a0302ada1d737cdaef1b826040516107059190610c5c565b60405180910390a250565b34600160003373ffffffffffffffffffffffffffffffffffffffff1673ffffffffffffffffffffffffffffffffffffffff168152602001908152602001600020600082825461075f9190610c88565b9250508190555060008054906101000a900473ffffffffffffffffffffffffffffffffffffffff1673ffffffffffffffffffffffffffffffffffffffff1663a9059cbb33346040518363ffffffff1660e01b81526004016107c1929190610b78565b602060405180830381600087803b1580156107db57600080fd5b505af11580156107ef573d6000803e3d6000fd5b505050506040513d601f19601f820116820180604052508101906108139190610982565b610852576040517f08c379a000000000000000000000000000000000000000000000000000000000815260040161084990610c3c565b60405180910390fd5b3373ffffffffffffffffffffffffffffffffffffffff167fe1fffcc4923d04b559f4d29a8bfc6cda04eb5b0d3c460751c2402c5c5cc9109c346040516108989190610c5c565b60405180910390a2565b60008054906101000a900473ffffffffffffffffffffffffffffffffffffffff1681565b60016020528060005260406000206000915090505481565b6000813590506108ed81610dad565b92915050565b60008151905061090281610dc4565b92915050565b60008135905061091781610ddb565b92915050565b60006020828403121561092f57600080fd5b600061093d848285016108de565b91505092915050565b6000806040838503121561095957600080fd5b6000610967858286016108de565b925050602061097885828601610908565b9150509250929050565b60006020828403121561099457600080fd5b60006109a2848285016108f3565b91505092915050565b6000602082840312156109bd57600080fd5b60006109cb84828501610908565b91505092915050565b6109dd81610d12565b82525050565b6109ec81610d5a565b82525050565b60006109ff601483610c77565b91507f4e6f7420656e6f756768206465706f73697465640000000000000000000000006000830152602082019050919050565b6000610a3f601b83610c77565b91507f417070726f766520746f20746865207a65726f206164647265737300000000006000830152602082019050919050565b6000610a7f601d83610c77565b91507f417070726f76652066726f6d20746865207a65726f20616464726573730000006000830152602082019050919050565b6000610abf601b83610c77565b91507f4e6f7420656e6f75676820746f6b656e73206465706f736974656400000000006000830152602082019050919050565b6000610aff601683610c77565b91507f546f6b656e207472616e73666572206661696c65642e000000000000000000006000830152602082019050919050565b610b3b81610d50565b82525050565b6000606082019050610b5660008301866109d4565b610b6360208301856109d4565b610b706040830184610b32565b949350505050565b6000604082019050610b8d60008301856109d4565b610b9a6020830184610b32565b9392505050565b6000602082019050610bb660008301846109e3565b92915050565b60006020820190508181036000830152610bd5816109f2565b9050919050565b60006020820190508181036000830152610bf581610a32565b9050919050565b60006020820190508181036000830152610c1581610a72565b9050919050565b60006020820190508181036000830152610c3581610ab2565b9050919050565b60006020820190508181036000830152610c5581610af2565b9050919050565b6000602082019050610c716000830184610b32565b92915050565b600082825260208201905092915050565b6000610c9382610d50565b9150610c9e83610d50565b9250827fffffffffffffffffffffffffffffffffffffffffffffffffffffffffffffffff03821115610cd357610cd2610d7e565b5b828201905092915050565b6000610ce982610d50565b9150610cf483610d50565b925082821015610d0757610d06610d7e565b5b828203905092915050565b6000610d1d82610d30565b9050919050565b60008115159050919050565b600073ffffffffffffffffffffffffffffffffffffffff82169050919050565b6000819050919050565b6000610d6582610d6c565b9050919050565b6000610d7782610d30565b9050919050565b7f4e487b7100000000000000000000000000000000000000000000000000000000600052601160045260246000fd5b610db681610d12565b8114610dc157600080fd5b50565b610dcd81610d24565b8114610dd857600080fd5b50565b610de481610d50565b8114610def57600080fd5b5056fea2646970667358221220aeaf4e2b2544d3044412e199ce31256f93b3e6ac279a17a3f888d66827d7572164736f6c63430008000033",
  "immutableReferences": {},
  "source": "// SPDX-License-Identifier: MIT\npragma solidity ^0.8.0;\n\nimport \"@openzeppelin/contracts/token/ERC20/ERC20.sol\";\nimport \"@openzeppelin/contracts/token/ERC20/IERC20.sol\";\n\ncontract MyToken is ERC20 {\n    constructor() ERC20(\"MyToken\", \"MTK\") {\n        _mint(msg.sender, 10000 * (10 ** uint256(decimals())));\n    }\n}\n\ncontract LendingContract {\n    IERC20 public token;\n    mapping(address => uint256) public deposits;\n\n    event Deposit(address indexed user, uint256 amount);\n    event Withdrawal(address indexed user, uint256 amount);\n    event Repayment(address indexed user, uint256 amount);\n\n    constructor(IERC20 _token) {\n        token = _token;\n    }\n\n    function deposit() external payable {\n        deposits[msg.sender] += msg.value;\n        require(token.transfer(msg.sender, msg.value), \"Token transfer failed.\");\n        emit Deposit(msg.sender, msg.value);\n    }\n\n    function approve(address spender, uint256 amount) external {\n        require(msg.sender != address(0), \"Approve from the zero address\");\n        require(spender != address(0), \"Approve to the zero address\");\n\n        // Call the approve function of the token contract\n        token.approve(spender, amount);\n    }\n\n    function withdraw(uint256 amount) external {\n        require(deposits[msg.sender] >= amount, \"Not enough deposited\");\n        deposits[msg.sender] -= amount;\n        require(token.transferFrom(msg.sender, address(this), amount), \"Token transfer failed.\");\n        payable(msg.sender).transfer(amount);\n        emit Withdrawal(msg.sender, amount);\n    }\n\n    \n    // Repay loan\n    function repayLoan(uint256 amount) external {\n        require(deposits[msg.sender] >= amount, \"Not enough tokens deposited\");\n        \n        // The transferFrom function is used here to move tokens from the user's\n        // account to this contract's account. This represents the user paying\n        // back their loan.\n        token.transferFrom(msg.sender, address(this), amount);\n\n        deposits[msg.sender] -= amount;\n\n        // Emit Repayment event\n        emit Repayment(msg.sender, amount);\n    }\n}\n",
  "sourcePath": "/home/cbc/blockchain/tradeSecrets/contracts/LendingContract.sol",
  "compiler": {
    "name": "solc",
    "version": "0.8.0+commit.c7dfd78e.Emscripten.clang"
  },
  "schemaVersion": "3.4.14",
  "updatedAt": "2023-07-16T01:47:09.237Z",
  "networkType": "ethereum",
  "devdoc": {
    "kind": "dev",
    "methods": {},
    "version": 1
  },
  "userdoc": {
    "kind": "user",
    "methods": {},
    "version": 1
  }
}